{
  "_format": "hh-sol-artifact-1",
  "contractName": "Counter",
  "sourceName": "contracts/Counter.sol",
  "abi": [
    {
      "inputs": [],
      "name": "count",
      "outputs": [
        {
          "internalType": "uint256",
          "name": "",
          "type": "uint256"
        }
      ],
      "stateMutability": "view",
      "type": "function"
    },
    {
      "inputs": [],
      "name": "dec",
      "outputs": [],
      "stateMutability": "nonpayable",
      "type": "function"
    },
    {
      "inputs": [],
      "name": "get",
      "outputs": [
        {
          "internalType": "uint256",
          "name": "",
          "type": "uint256"
        }
      ],
      "stateMutability": "view",
      "type": "function"
    },
    {
      "inputs": [],
      "name": "inc",
      "outputs": [],
      "stateMutability": "nonpayable",
      "type": "function"
    }
  ],
  "bytecode": "0x6080604052348015600f57600080fd5b506102ce8061001f6000396000f3fe608060405234801561001057600080fd5b506004361061004c5760003560e01c806306661abd14610051578063371303c01461006f5780636d4ce63c14610079578063b3bcfa8214610097575b600080fd5b6100596100a1565b6040516100669190610143565b60405180910390f35b6100776100a7565b005b6100816100c2565b60405161008e9190610143565b60405180910390f35b61009f6100cb565b005b60005481565b60016000808282546100b9919061018d565b92505081905550565b60008054905090565b600080541161010f576040517f08c379a000000000000000000000000000000000000000000000000000000000815260040161010690610244565b60405180910390fd5b60016000808282546101219190610264565b92505081905550565b6000819050919050565b61013d8161012a565b82525050565b60006020820190506101586000830184610134565b92915050565b7f4e487b7100000000000000000000000000000000000000000000000000000000600052601160045260246000fd5b60006101988261012a565b91506101a38361012a565b92508282019050808211156101bb576101ba61015e565b5b92915050565b600082825260208201905092915050565b7f436f756e7465723a63616e6e6f742064656372656d656e742062656c6f77207a60008201527f65726f0000000000000000000000000000000000000000000000000000000000602082015250565b600061022e6023836101c1565b9150610239826101d2565b604082019050919050565b6000602082019050818103600083015261025d81610221565b9050919050565b600061026f8261012a565b915061027a8361012a565b92508282039050818111156102925761029161015e565b5b9291505056fea26469706673582212205be350cab6d3818bc7c24366f5d592acd268f8f18973dc238f5f9c8fe41be34464736f6c634300081c0033",
  "linkReferences": {},
  "deployedLinkReferences": {}
}